:020000040800F2
:1000000000000220410F0008910F0008910F000826
:10001000910F0008910F0008910F000800000000E8
:10002000000000000000000000000000910F000828
:10003000910F000800000000910F0008910F0008C8
:10004000910F0008910F0008910F0008910F000810
:1000500000000000910F0008910F0008910F0008A8
:10006000910F0008910F0008910F0008910F0008F0
:10007000910F0008910F0008910F0008910F0008E0
:10008000910F0008910F0008910F0008910F0008D0
:10009000910F0008910F0008910F0008910F0008C0
:1000A000910F0008910F0008910F0008910F0008B0
:1000B000910F0008910F0008910F0008910F0008A0
:1000C000910F0008910F0008910F0008910F000890
:1000D000910F0008910F0008910F0008910F000880
:1000E000910F0008910F0008910F0008910F000870
:1000F000910F0008910F0008910F0008910F000860
:10010000910F0008910F0008910F0008910F00084F
:10011000910F0008910F0008910F0008910F00083F
:10012000910F0008910F0008910F0008910F00082F
:10013000910F0008910F0008910F0008910F00081F
:10014000910F0008910F0008910F0008910F00080F
:10015000910F0008910F0008910F0008910F0008FF
:10016000910F0008910F0008910F0008910F0008EF
:10017000910F0008910F0008910F0008910F0008DF
:10018000910F0008910F000800000000000000001F
:10019000000000000000000000000000000000005F
:0801A000910F0008910F000807
:1001B00010B5054C237833B9044B13B10448AFF3A1
:1001C00000800123237010BDD40100200000000036
:1001D0000459000808B5034B1BB103490348AFF3AA
:1001E000008008BD00000000D8010020045900086C
:1001F000034613F8012B002AFBD1181A0138704767
:1002000001F0FF01102A2BDB10F0070F08D010F8C7
:10021000013B013A8B422DD010F0070F42B3F6D1CB
:10022000F0B441EA012141EA014122F007047FF0E4
:1002300000070023F0E80256083C85EA010586EA3B
:10024000010685FA47F5A3FA87F586FA47F6A5FA77
:1002500087F68EB9EED1F0BC01F0FF0102F0070283
:1002600032B110F8013B013A83EA010313B1F8D12E
:100270000020704701387047002D06BF354603380F
:10028000073815F0010F07D1013015F4807F02BF48
:10029000013015F4C03F0130F0BC0138704700BF99
:1002A00081F0004102E000BF83F0004330B54FEA27
:1002B00041044FEA430594EA050F08BF90EA020F94
:1002C0001FBF54EA000C55EA020C7FEA645C7FEA27
:1002D000655C00F0E2804FEA5454D4EB5555B8BF4A
:1002E0006D420CDD2C4480EA020281EA030382EABB
:1002F000000083EA010180EA020281EA0303362D4D
:1003000088BF30BD11F0004F4FEA01314FF4801C1F
:100310004CEA113102D0404261EB410113F0004F31
:100320004FEA03334CEA133302D0524263EB4303E8
:1003300094EA050F00F0A780A4F10104D5F1200E86
:100340000DDB02FA0EFC22FA05F2801841F10001E1
:1003500003FA0EF2801843FA05F359410EE0A5F1B5
:1003600020050EF1200E012A03FA0EFC28BF4CF0E6
:10037000020C43FA05F3C01851EBE37101F000459C
:1003800007D54FF0000EDCF1000C7EEB00006EEBA9
:100390000101B1F5801F1BD3B1F5001F0CD3490833
:1003A0005FEA30004FEA3C0C04F101044FEA44528A
:1003B00012F5800F80F09A80BCF1004F08BF5FEA11
:1003C000500C50F1000041EB045141EA050130BDF1
:1003D0005FEA4C0C404141EB0101013C28BFB1F503
:1003E000801FE9D291F0000F04BF01460020B1FA4E
:1003F00081F308BF2033A3F10B03B3F120020CDA21
:100400000C3208DD02F1140CC2F10C0201FA0CF0FE
:1004100021FA02F10CE002F11402D8BFC2F1200C63
:1004200001FA02F120FA0CFCDCBF41EA0C01904019
:10043000E41AA2BF01EB0451294330BD6FEA040462
:100440001F3C1CDA0C340EDC04F11404C4F120024D
:1004500020FA04F001FA02F340EA030021FA04F35F
:1004600045EA030130BDC4F10C04C4F1200220FAB6
:1004700002F001FA04F340EA0300294630BD21FAF4
:1004800004F0294630BD94F0000F83F4801306BFBA
:1004900081F480110134013D4EE77FEA645C18BFAE
:1004A0007FEA655C29D094EA050F08BF90EA020F45
:1004B00005D054EA000C04BF1946104630BD91EA3D
:1004C000030F1EBF0021002030BD5FEA545C05D140
:1004D0004000494128BF41F0004130BD14F580047F
:1004E0003CBF01F5801130BD01F0004545F0FE41F3
:1004F00041F470014FF0000030BD7FEA645C1ABF28
:10050000194610467FEA655C1CBF0B46024650EA5E
:10051000013406BF52EA033591EA030F41F400218A
:1005200030BD00BF90F0000F04BF0021704730B510
:100530004FF4806404F132044FF000054FF00001E5
:1005400050E700BF90F0000F04BF0021704730B5A6
:100550004FF4806404F1320410F0004548BF40427B
:100560004FF000013EE700BF42004FEAE2014FEAD0
:1005700031014FEA02701FBF12F07F4393F07F4FAB
:1005800081F06051704732F07F4208BF704793F0AE
:100590007F4F04BF41F40021704730B54FF46074C1
:1005A00001F0004521F000411CE700BF50EA0102C4
:1005B00008BF704730B54FF000050AE050EA01026D
:1005C00008BF704730B511F0004502D5404261EBDD
:1005D00041014FF4806404F132045FEA915C3FF41E
:1005E000D8AE4FF003025FEADC0C18BF03325FEABB
:1005F000DC0C18BF033202EBDC02C2F1200300FA6C
:1006000003FC20FA02F001FA03FE40EA0E0021FA90
:1006100002F11444BDE600BF70B54FF0FF0C4CF47E
:10062000E06C1CEA11541DBF1CEA135594EA0C0F30
:1006300095EA0C0F00F0DEF82C4481EA030621EA6B
:100640004C5123EA4C5350EA013518BF52EA0335A6
:1006500041F4801143F4801338D0A0FB02CE4FF058
:100660000005E1FB02E506F00042E0FB03E54FF088
:100670000006E1FB03569CF0000F18BF4EF0010E80
:10068000A4F1FF04B6F5007F64F5407404D25FEA7C
:100690004E0E6D4146EB060642EAC62141EA55512F
:1006A0004FEAC52040EA5E504FEACE2EB4F1FD0C71
:1006B00088BFBCF5E06F1ED8BEF1004F08BF5FEAEF
:1006C000500E50F1000041EB045170BD06F00046A1
:1006D00046EA010140EA020081EA0301B4EB5C044E
:1006E000C2BFD4EB0C0541EA045170BD41F4801146
:1006F0004FF0000E013C00F3AB8014F1360FDEBF6B
:10070000002001F0004170BDC4F10004203C35DA46
:100710000C341BDC04F11404C4F1200500FA05F3C9
:1007200020FA04F001FA05F240EA020001F000426A
:1007300021F0004110EBD37021FA04F642EB0601E0
:100740005EEA430E08BF20EAD37070BDC4F10C040A
:10075000C4F1200500FA04F320FA05F001FA04F2CE
:1007600040EA020001F0004110EBD37041F10001BA
:100770005EEA430E08BF20EAD37070BDC4F12005C5
:1007800000FA05F24EEA020E20FA04F301FA05F22D
:1007900043EA020321FA04F001F0004121FA04F2D5
:1007A00020EA020000EBD3705EEA430E08BF20EAA5
:1007B000D37070BD94F0000F0FD101F000464000DF
:1007C00041EB010111F4801F08BF013CF7D041EA61
:1007D000060195F0000F18BF704703F00046520065
:1007E00043EB030313F4801F08BF013DF7D043EA36
:1007F0000603704794EA0C0F0CEA135518BF95EAEC
:100800000C0F0CD050EA410618BF52EA4306D1D172
:1008100081EA030101F000414FF0000070BD50EA91
:10082000410606BF1046194652EA430619D094EA1B
:100830000C0F02D150EA013613D195EA0C0F05D105
:1008400052EA03361CBF104619460AD181EA030159
:1008500001F0004141F0FE4141F470014FF0000011
:1008600070BD41F0FE4141F4780170BD70B54FF0AC
:10087000FF0C4CF4E06C1CEA11541DBF1CEA13552C
:1008800094EA0C0F95EA0C0F00F0A7F8A4EB05040E
:1008900081EA030E52EA03354FEA013100F0888005
:1008A0004FEA03334FF0805545EA131343EA1263CE
:1008B0004FEA022245EA111545EA10654FEA002683
:1008C0000EF000419D4208BF964244F1FD0404F53C
:1008D000407402D25B084FEA3202B61A65EB030598
:1008E0005B084FEA32024FF480104FF4002CB6EB55
:1008F000020E75EB030E22BFB61A754640EA0C00D5
:100900005B084FEA3202B6EB020E75EB030E22BF14
:10091000B61A754640EA5C005B084FEA3202B6EB55
:10092000020E75EB030E22BFB61A754640EA9C0014
:100930005B084FEA3202B6EB020E75EB030E22BFE4
:10094000B61A754640EADC0055EA060E18D04FEAA2
:10095000051545EA16754FEA06164FEAC30343EA42
:1009600052734FEAC2025FEA1C1CC0D111F4801F0F
:100970000BD141EA00014FF000004FF0004CB6E708
:1009800011F4801F04BF01430020B4F1FD0C88BFA7
:10099000BCF5E06F3FF6AFAEB5EB030C04BFB6EBB2
:1009A000020C5FEA500C50F1000041EB045170BDA5
:1009B0000EF0004E4EEA113114EB5C04C2BFD4EBD2
:1009C0000C0541EA045170BD41F480114FF0000E56
:1009D000013C90E645EA060E8DE60CEA135594EAD2
:1009E0000C0F08BF95EA0C0F3FF43BAF94EA0C0FD5
:1009F0000AD150EA01347FF434AF95EA0C0F7FF44A
:100A000025AF104619462CE795EA0C0F06D152EA9D
:100A100003353FF4FDAE1046194622E750EA410681
:100A200018BF52EA43067FF4C5AE50EA41047FF492
:100A30000DAF52EA43057FF4EBAE12E74FF0FF3CF7
:100A400006E000BF4FF0010C02E000BF4FF0010CC8
:100A50004DF804CD4FEA410C7FEA6C5C4FEA430C41
:100A600018BF7FEA6C5C1BD001B050EA410C0CBF90
:100A700052EA430C91EA030F02BF90EA020F0020F2
:100A8000704710F1000F91EA030F58BF994208BF59
:100A900090422CBFD8176FEAE37040F00100704716
:100AA0004FEA410C7FEA6C5C02D150EA013C07D16D
:100AB0004FEA430C7FEA6C5CD6D152EA033CD3D0B8
:100AC0005DF8040B704700BF8446104662468C46B2
:100AD0001946634600E000BF01B5FFF7B7FF0028E5
:100AE00048BF10F1000F01BD4DF808EDFFF7F4FF0E
:100AF0000CBF012000205DF808FB00BF4DF808ED99
:100B0000FFF7EAFF34BF012000205DF808FB00BFBB
:100B10004DF808EDFFF7E0FF94BF012000205DF8DD
:100B200008FB00BF4DF808EDFFF7CEFF94BF012092
:100B300000205DF808FB00BF4DF808EDFFF7C4FF8B
:100B400034BF012000205DF808FB00BF4FEA410CD4
:100B50007FEA6C5C02D150EA013C0AD14FEA430CB7
:100B60007FEA6C5C02D152EA033C02D14FF00000F4
:100B700070474FF0010070474FEA410212F5001232
:100B800015D211D56FF47873B3EB625212D94FEAD4
:100B9000C12343F0004343EA505311F0004F23FABE
:100BA00002F018BF404270474FF00000704750EA13
:100BB000013005D111F0004008BF6FF000407047D0
:100BC0004FF00000704700BF4A0011D212F500122A
:100BD00011D20DD56FF47873B3EB62520ED44FEA95
:100BE000C12343F0004343EA505323FA02F0704715
:100BF0004FF00000704750EA013002D14FF0FF3053
:100C000070474FF0000070474FEA4102B2F1E043F5
:100C100024BFB3F5001CDCF1FE5C0DD901F0004CE3
:100C20004FEAC0024CEA5070B2F1004F40EB830033
:100C300008BF20F00100704711F0804F21D113F15F
:100C40003872BCBF01F00040704741F480114FEA98
:100C50005252C2F11802C2F1200C10FA0CF320FA21
:100C600002F018BF40F001004FEAC1234FEAD3233E
:100C700003FA0CFC40EA0C0023FA02F34FEA4303A8
:100C8000CCE77FEA625307D150EA01331EBF4FF031
:100C9000FE4040F44000704701F0004040F0FE404C
:100CA00040F40000704700BF38B505460C462846A2
:100CB000214600220023FFF721FF28B928462146BC
:100CC000BDE8384000F00AB8284604F1004100F0C1
:100CD00005F8404261EB410138BD00BFD0B50C4B77
:100CE000002206460F46FFF797FCFFF76DFF04460C
:100CF000FFF718FC074B0022FFF78EFC02460B465D
:100D000030463946FFF7D0FAFFF75EFF2146D0BDE7
:100D10000000F03D0000F04180B584B000AF00233A
:100D2000FB6005E0104801F03DF8FB680133FB6013
:100D3000FB68042BF6DD0D4BBB60BB68FF221A700D
:100D4000BB681B7803F07F03DAB2BB681A70BB681C
:100D5000FF221A70064B7B607B6800221A7000230A
:100D600018461037BD4680BD2059000800020020FB
:100D70001C40002280B483B000AF0346FB710E4BD1
:100D80001B680D4A43F0807313600C4B1B680B4AC1
:100D900043F00103136000BF4FF060431B6803F092
:100DA0000103002BF8D04FF06042FB79136000BFC5
:100DB0000C37BD4680BC7047FCED00E0000E00E043
:100DC00080B400AF01231846BD4680BC704780B593
:100DD00082B000AF7860396000F0DCF8034616227C
:100DE0001A604FF0FF3318460837BD4680BD80B506
:100DF00082B000AF78604FF0FF317868FFF7E7FF0F
:100E0000FEE780B586B000AFF860B9607A60002375
:100E10007B610AE0AFF300800146BB685A1CBA60F0
:100E2000CAB21A707B6901337B617A697B689A4226
:100E3000F0DB7B6818461837BD4680BD80B586B0AC
:100E400000AFF860B9607A6000237B6109E0BB689D
:100E50005A1CBA601B781846FFF78CFF7B69013378
:100E60007B617A697B689A42F1DB7B6818461837A8
:100E7000BD4680BD80B483B000AF78604FF0FF33D3
:100E800018460C37BD4680BC704780B483B000AFB5
:100E9000786039603B684FF400525A60002318466E
:100EA0000C37BD4680BC704780B483B000AF78601B
:100EB000012318460C37BD4680BC704780B485B00E
:100EC00000AFF860B9607A60002318461437BD4659
:100ED00080BC704780B586B000AF7860144A154B6F
:100EE000D31A7B617B693B61134B1B68002B02D1DA
:100EF000114B124A1A60104B1A687B6813443A6906
:100F00009A4207D200F046F803460C221A604FF0CE
:100F1000FF3309E0084B1B68FB60074B1A687B68CE
:100F20001344054A1360FB6818461837BD4680BD58
:100F30000000022000040000F00100200802002050
:100F40000D488546AFF300800C480D490D4A00233B
:100F500002E0D458C4500433C4188C42F9D30A4A6E
:100F60000A4C002301E013600432A242FBD300F0DC
:100F700017F8FFF7D1FEFEE7000002200000002076
:100F8000D4010020E45D0008D40100200402002008
:100F9000FEE70000014B1868704700BF000000200A
:100FA00070B50D4D0D4C641BA4100026A64209D14E
:100FB0000B4D0C4C04F0A6FC641BA4100026A642AA
:100FC00005D170BD55F8043B98470136EEE755F85A
:100FD000043B98470136F2E7DC5D0008DC5D000861
:100FE000DC5D0008E05D000802440346934200D146
:100FF000704703F8011BF9E72DE9F04788B0002B93
:101000001F461446B8BF03F10043129A109DDDF845
:101010004CA0B6BF1F4600232D231370149B23F052
:101020002008B8F1460F05D0B8F1450F00D10135C1
:10103000022300E0032307AA049206AACDE902A234
:10104000CDE9003522463B4601F0AEFEB8F1470F30
:10105000064602D1119BDB0722D5B8F1460F06EBFD
:10106000050910D13378302B0AD100220023204605
:101070003946FFF739FD18B9C5F10105CAF8005026
:10108000DAF8003099440022002320463946FFF761
:101090002BFD08B1CDF81C903022079B4B4507D3A0
:1010A000079B159A9B1B3046136008B0BDE8F0877C
:1010B000591C07911A70F0E7F7B503460029B8BF2D
:1010C000494203F8022BB4BF2D222B22092942707A
:1010D0002ADD0DF10704A4460A27A6460A4691FB1D
:1010E000F7F607FB16153035632A04F1FF340EF8C6
:1010F000015C3146F1DC3031AEF1020504F8011C2F
:10110000441C294661450AD30DF10902A2EB0E02E7
:10111000654588BF00221344181A03B0F0BD11F8CA
:10112000012B04F8012FEDE7302330318370C170BB
:10113000031DF1E72DE9F04F91B00C46DDF8688012
:1011400016461F46054603F035F90368099318460D
:10115000FFF74EF800230E93D8F800300A900733BB
:1011600023F0070303F1080294F81890D4F800B0B4
:10117000C8F80020D3E90023C4E91223D4E9128A75
:101180002AF000430B930B999C4B4FF0FF324046E3
:10119000FFF7DCFC70BB994B0B994FF0FF324046D8
:1011A000FFF7B6FC30BB0022002340465146FFF754
:1011B000A5FC10B12D2384F84330914B9148B9F12F
:1011C000470F94BF98468046032323612BF0040306
:1011D00023604FF0000A009733460FAA21462846A5
:1011E00000F0D2F9013040F08F804FF0FF3011B0A5
:1011F000BDE8F08F4246534640465146FFF7A6FCF5
:1012000040B1BAF1000FBCBF2D2384F843307E48B3
:101210007E4BD4E763685A1C09F0DF0142D10623F4
:101220006360002206920EAACDE904920DAA4BF447
:10123000806303920DF13302CDE9013223606368CC
:1012400000934246534628460B91FFF7D5FE0B9973
:10125000472980460D9908D1C81C02DB6368994272
:1012600040DDA9F102095FFA89F9B9F1650F1FD8CC
:1012700001394A4604F150000D91FFF71DFF0E9A07
:101280001318012A8246236102DC2268D20701D5A5
:10129000013323619DF83330002B9CD02D2384F83B
:1012A000433098E74729BCD1002BBAD10123B7E7D7
:1012B000B9F1660F18D1002963680BDD216113B9FC
:1012C0002268D00702D501330B442361A1654FF09A
:1012D000000ADFE713B92268D20701D50233F4E729
:1012E0000123F2E74FF067090E9B994205DB236863
:1012F0002161D807EAD54B1CE7E70029D4BFC1F12B
:10130000020201221344E0E723685A0507D4236947
:10131000424631462846B84701302BD165E7B9F13E
:10132000650F40F2DC80D4E9120100220023FFF7B0
:10133000DBFB002833D0364A012331462846B84724
:1013400001303FF452AFDDE90D239A4202DB2368FE
:10135000D8070FD5DDE9092331462846B8470130C3
:101360003FF443AF4FF0000804F11A090E9B013B14
:10137000434509DC23689B0700F10181E0680F9B6E
:101380009842B8BF184632E701234A4631462846FC
:10139000B84701303FF429AF08F10108E6E70D9B9B
:1013A000002B37DC1A4A012331462846B847013062
:1013B0003FF41BAFDDE90D23134302D12368D907A6
:1013C000D8D5DDE9092331462846B84701303FF436
:1013D0000CAF4FF0000904F11A0A0D9B5B424B451C
:1013E00001DC0E9B94E70123524631462846B8475C
:1013F00001303FF4FAAE09F10109EEE7FFFFEF7F9C
:1014000030590008345900083C5900083859000880
:10141000405900080E9AA36D9A42A8BF1A46002AA6
:10142000914637DC4FF0000B29EAE97904F11A0202
:10143000D4F858A0AAEB09035B4533DCDDE90D23A2
:101440009A423BDB2368DA0738D40E9B0D99A3EB55
:101450000A02A3EB01099145A8BF9146B9F1000F1B
:1014600034DC4FF0000829EAE97904F11A0ADDE9D1
:101470000D239B1AA3EB090343457FF77BAF0123A1
:10148000524631462846B84701303FF4AEAE08F127
:101490000108ECE71346314642462846B84701307A
:1014A000C0D1A2E60123314628460B92B84701304D
:1014B0003FF49BAE0B9A0BF1010BB9E7DDE9092371
:1014C00031462846B8470130BFD18EE64B4608EB7F
:1014D0000A0231462846B8470130C2D185E60E9A45
:1014E000012A01DCDB0737D5012342463146284675
:1014F000B84701303FF479AEDDE90923314628468B
:10150000B84701303FF471AED4E912010022002344
:10151000FFF7EAFAD8B90E9B08F10102013B314608
:101520002846B84701300ED15FE601234A463146CE
:101530002846B84701303FF458AE08F101080E9B29
:10154000013B4345F1DC534604F15002E1E64FF024
:10155000000804F11A09F2E701234246DFE70123FC
:101560004A4631462846B84701303FF43EAE08F1BE
:101570000108E3680F995B1A4345F0DCFEE64FF083
:10158000000804F11909F4E72DE9F04716469946D9
:101590008A680B69DDF820809342B8BF1346336038
:1015A00091F8432007460C460AB1013333602368A3
:1015B000990642BF336802333360256815F006058B
:1015C00006D104F1190AE36832689B1AAB4226DCA3
:1015D00094F84320131E226818BF012392062BD4CF
:1015E00004F1430249463846C04701301ED0236803
:1015F000E568326803F00603042B08BFAD1AA36840
:1016000022690CBF25EAE57500259342C4BF9B1AE9
:10161000ED1800261A34B5421AD1002008E0012343
:10162000524649463846C047013003D14FF0FF309B
:10163000BDE8F0870135C6E7E1185A1C302081F873
:101640004300224494F8451082F843100233C7E760
:101650000123224649463846C0470130E6D00136CC
:10166000D9E700002DE9FF470F7E0C9D782F9146AA
:1016700080460C469A4601F1430207D8622F0AD8E9
:10168000002F00F0D880582F00F0A38004F142050D
:1016900084F842703AE0A7F16303152BF6D801A154
:1016A00051F823F0FD160008111700088D160008E8
:1016B0008D1600088D1600088D16000811170008F9
:1016C0008D1600088D1600088D1600088D1600086E
:1016D0001D18000841170008FF1700088D160008A4
:1016E0008D1600083F1800088D16000841170008E5
:1016F0008D1600088D160008071800082B681A1DA3
:101700001B682A6004F1420584F842300123A3E0FB
:1017100020682968060601F104030AD50E682B60CB
:10172000002E03DA2D23764284F843305E480A23E4
:1017300019E00E682B6010F0400F18BF36B2EFE7CB
:101740002B682068191D2960010601D51E6802E07A
:101750004606FBD51E8854486F2F0CBF08230A236A
:10176000002184F843106568A560002DA2BF2168A0
:1017700021F0040121600EB9002D4DD01546B6FBB5
:10178000F3F103FB1167C75D05F8017D3746BB42E6
:101790000E46F4D9082B0BD12368DE0708D5236940
:1017A00061689942DEBF302305F8013C05F1FF3541
:1017B000521B2261CDF800A04B4603AA21464046A9
:1017C000FFF7E2FE01304CD14FF0FF3004B0BDE82E
:1017D000F087354881F845702968236851F8046B13
:1017E00029601D0614D5DF0744BF43F020032360A2
:1017F0001EB9236823F0200323601023B0E7236879
:1018000043F0200323607823284884F84530E3E739
:10181000590648BFB6B2E6E71546BBE72B6826680F
:101820006169181D286035061B6801D5196002E042
:101830007006FBD51980002323611546BAE72B6893
:101840001A1D2A601D68626800212846FEF7D8FC30
:1018500008B1401B606063682361002384F8433053
:10186000A8E723692A4649464046D0470130ABD015
:1018700023689B0713D4E068039B9842B8BF1846BF
:10188000A4E70123324649464046D04701309BD069
:101890000135E36803995B1AAB42F2DCEBE7002504
:1018A00004F11906F5E700BF425900085359000832
:1018B0002DE9F04F87B0174603938B685A1EB2F597
:1018C000AE7F83BF6FF4AE755B190293002386BFB2
:1018D00040F25D138B6002930B688B46002543F446
:1018E000F0634BF81C3BCDE9045580460C465E4640
:1018F000AA46A9460195A26852B13B681B784E2BB7
:1019000064D8402B3CD8A3F12B01C8B20E283AD999
:10191000B9F1000F03D0236823F4807323600AF128
:10192000FF3ABAF1010F00F213815E4500F2058122
:101930000125284607B0BDE8F08FA3F161020D2A0A
:10194000E6D801A151F822F0871A00081119000801
:101950001119000811190008E71A0008BF1A000839
:101960001119000811190008951A0008111900082A
:101970001119000811190008111900084D1A000862
:10198000A3F14102DBE70E29C2D801A050F821F0F3
:101990003F1A0008111900083F1A0008D31A00085E
:1019A00011190008ED190008291A0008291A000861
:1019B000291A0008291A0008291A0008291A0008FB
:1019C000291A0008291A0008291A00086E2B09D8BC
:1019D000602BB2D8542B77D0592B99D1072D97D1A2
:1019E000082529E0742B6FD0792BF6E72168C8050C
:1019F0001AD5029B21F08001216009F101091BB178
:101A0000013B01320293A260A368013BA3602369FA
:101A1000013323617B68013B002B7B6040F38480B2
:101A20003B6801333B6066E71AEB050F7FF470AF4C
:101A3000226822F4C072226006F8013BE4E72268C3
:101A400010067FF565AF22F08002F4E7BAF1000FCF
:101A50000ED1B9F1000F0ED1226802F4E061B1F5A8
:101A6000E06F08D122F4F06222604FF0010AE3E750
:101A7000BAF1020F55D0012D02D0042D7FF448AFEA
:101A80000135EDB2D8E7BAF1010F7FF441AF4FF065
:101A9000020AD1E77DB9B9F1000F7FF43CAF2268AB
:101AA00002F4E061B1F5E06F7FF439AF22F4F06247
:101AB00022600125C0E7032DE2D0052DDEE7022DCF
:101AC0007FF426AF0325B7E7062D7FF421AF072566
:101AD000B2E7226891057FF51BAF22F420722260E5
:101AE000CDF80490A8E7226802F4A061B1F5806FF8
:101AF00006D050057FF50CAFB9F1000F3FF40FAFE2
:101B0000910558BF019922F4F06258BFA9EB010179
:101B100042F4C07258BFCDE9041622604FF00009AC
:101B20008AE74FF0030A87E7D4F880313946404608
:101B3000984700283FF4DFAEEAE6D4F87C3116F887
:101B4000011D3A46404698472369013B2361ECE674
:101B50006B1E062B25D8022D36D85E457FF6E8AEE3
:101B6000D4F87C3116F8011D3A464046984723695F
:101B7000013B2361F1E70298D4F87C3110F8011D94
:101B800002903A46404698472369013B23610AF197
:101B9000FF3A5FFA8AFABAF1020FECD1033DEDB2D7
:101BA000761B2368DA052FD55B0510D55E457FF6D9
:101BB000BFAED4F87C3116F8011D3A46404698472E
:101BC0002369013B2361F1E7AA460296DFE716F895
:101BD000011C2369652903F1FF3306F1FF352361F9
:101BE0000CD045290AD0D4F87C313A464046984773
:101BF000236916F8021C013BB51E2361D4F87C3121
:101C00003A46404698472E46256815F0100555D1AE
:101C10003570236803F4C063B3F5806F1BD1019B5B
:101C20004B45A3EB090223D100225946404600F060
:101C3000EFFE2268039B12F0020F1B6806460F4658
:101C400021D01A1D03990A601B68C3E90067E36885
:101C50000133E3606DE6049B002BE5D005990A2370
:101C60002A460131404600F055FF049B059EC21AEA
:101C700004F26F139E4228BF04F5B7761049304630
:101C800000F09CF8D0E712F0040F03F10402D9D160
:101C9000DDF80CC0CCF80020D3F8008002460B46DB
:101CA000FEF754FF28B1074800F084F8C8F8000098
:101CB000CDE730463946FEF7A7FFF7E7002538E6BF
:101CC00064590008D85D000870B50E46054618B185
:101CD00083690BB901F06CFFAB69AC6813B9284696
:101CE00001F066FF2C4B9C4220D16C68636EDB07D1
:101CF00005D4A389980502D4A06D02F060FBA389E6
:101D000019071DD52369DBB1013EA36816F8011F31
:101D1000013BA36039BB002B38DA22460A21284652
:101D200000F0FAFE013011D00A2511E01B4B9C4255
:101D300001D1AC68DAE71A4B9C4208BFEC68D5E7E2
:101D40002146284600F03AFF0028DDD04FF0FF354D
:101D5000636EDA0705D4A3899B0502D4A06D02F057
:101D60002FFB284670BD002B04DAA2699A4206DCDC
:101D70000A2904D023685A1C22601970C5E722463C
:101D8000284600F0C9FE0130BFD1DFE723680A25ED
:101D90005A1C22601D70DBE7745B0008945B00082E
:101DA000545B0008024B01461868FFF78DBF00BF67
:101DB00000000020004870470000C07F0EB400B54E
:101DC0009CB01DAB029006906FF00041094807914E
:101DD0000491094953F8042B05910068019302A965
:101DE00003F07EF9029B00221A701CB05DF804EB30
:101DF00003B07047000000200802FFFF2DE9F0410A
:101E00000F46904602F0D6FE04460D46B8F1000F8C
:101E100011D0C7F30A53C3F16B03002B0BDD1B0575
:101E200003F17F55002405F5401522462B46FEF7A9
:101E3000F3FB04460D4620462946BDE8F08100002C
:101E40002DE9F04F9FB09B4600231A939E4B1592AD
:101E50001F68824638460E46FEF7CAF94FF0000862
:101E600004464FF000091996199B1A782B2A4CD07A
:101E70003AD80D2A33D8082A33D8002A3DD0002377
:101E80000A93199D2B78302B40F0AA806B7803F0D1
:101E9000DF03582B66D10A9B01931AAB00938B4A40
:101EA000CDF808B01BAB19A9504601F085FF10F022
:101EB0000706044605D0062E29D1013500231995C1
:101EC0000A93159B002B40F08A850A9BD3B14246AA
:101ED00009F10043104619461FB0BDE8F08F202AD3
:101EE000CDD101331993BFE72D2AC8D101220A921F
:101EF0005A1C19925B78002BC3D1159B1996002BA5
:101F000040F06B8542464B46E4E70022EFE71A9A21
:101F10003AB135211CA802F051FF1A99504602F03F
:101F20001DFB013E042E06D8DFE806F00A03141755
:101F30000A00DDE91C892107C3D549F00049C0E743
:101F4000DDE91C831B9A23F4801302F2334243EA37
:101F50000259F0E7DFF87891EDE76FF000494FF0B4
:101F6000FF38E8E7199B5A1C19925B78302BF9D09F
:101F7000002BA6D001230793199B08930023CDE9DA
:101F800005339B460A2219980578A5F13003D9B28A
:101F9000092927D92246394603F0FBF9002833D016
:101FA00000202A465C4604900346652A01D0452A53
:101FB00014D11CB9079A02439FD00024199E721CA9
:101FC000199272782B2A79D02D2A00F0838000276D
:101FD000A2F13001092940F28380199600259FE083
:101FE0000023C8E7BBF1080FD5BF0699059902FB8E
:101FF000013302FB013300F10100D4BF06930593C6
:102000000BF1010B1990BEE7199B1A1919921A5D71
:10201000BBF1000F36D004905C46A2F13003092BCF
:1020200012D90123C1E7199B5A1C19925A78013021
:10203000302AF8D0A2F13103082B00F2D584199B85
:102040000490002008930446303A00F1010313D0B5
:10205000049919440491234605190A21AB4213D16E
:102060002318082B04F1010404441BDC06990A23FD
:1020700003FB012306930023199A511C19915278EE
:102080001846CAE75846D3E7082B04DC069F4F439F
:1020900006970133E2E75F1C102FDEBF059F4F4319
:1020A0000597F6E7102CDFBF05990A2303FB0123F0
:1020B0000593E0E70023049301237BE70027B21C8C
:1020C0001992B27884E700BF1C5C00086C590008C4
:1020D0000000F07F0127F2E7199A511C19915278FC
:1020E000302AF9D0A2F1310108293FF677AFA2F1E9
:1020F000300C199A09924FF00A0E199A511C199135
:102100005278A2F13005092D35D9099D491B0829BE
:1021100044F61F6502DC6545A8BF654607B16D4200
:10212000002C4CD1079901437FF4CBAE002B7FF4F8
:10213000E4AE692A26D023DC492A23D04E2A7FF434
:10214000DCAE9D4919A802F085F800283FF4D5AE11
:10215000199B1B78282B2CD198491CAA19A802F08E
:102160008DF8052825D11D9BDDF8708043F0FF49CF
:1021700049F4E009A5E60EFB0C2CACF1300CBCE7F1
:102180006E2ADCE78E4919A802F064F800283FF4B3
:10219000B4AE199B8B49013B19A8199302F05AF868
:1021A00010B9199B01331993DFF81C924FF0000806
:1021B00087E6864803F094F88046894681E6049BCA
:1021C0000698EB1ABBF1000F08BFA346102C07932B
:1021D0002646A8BF1026FEF7A5F9092C8046894699
:1021E00013DD7B4B03EBC60353E91223FEF714FA0E
:1021F000804605988946FEF795F902460B4640460B
:102200004946FEF753F8804689460F2C36DC079B7B
:10221000002B3FF456AE22DD162B09DC6C4901EB96
:10222000C301D1E9000142464B46FEF7F5F9C3E789
:10223000079AC4F12503934220DB654DC4F10F04D6
:1022400005EBC40142464B46D1E90001FEF7E4F933
:10225000079B1C1B05EBC405D5E90023E5E7079B9D
:1022600016330BDB049B5D1B594B03EBC505D5E90E
:10227000002340464946FEF7F9FA9DE7079BA61B57
:102280001E44002E74DD16F00F030AD0504901EBF6
:10229000C30142464B46D1E90001FEF7BDF9804635
:1022A000894636F00F0652D0B6F59A7F27DD4FF0FB
:1022B000000BCDF810B0CDF820B0CDF818B0222327
:1022C000DFF80491CAF800304FF00008089B002B9B
:1022D0003FF4F7AD1A99504602F040F9069950467E
:1022E00002F03CF90499504602F038F9089950463A
:1022F00002F034F95946504602F030F9E1E5354B29
:10230000059300233611404649461F46012E21DC25
:102310000BB1804689462F4BA9F1547903EBC707CF
:1023200042464B46D7E90001FEF776F9264B0A46AE
:102330000B4029498B428046B9D8A1F580118B42C8
:1023400086BFDFF898904FF0FF3802F154790023F0
:1023500005937FE0F20705D5059BD3E90023FEF73F
:102360005BF90123059A0832013776100592CDE713
:10237000EDD0764216F00F020AD0154B03EBC203E4
:1023800040464946D3E90023FEF770FA8046894665
:102390003611DCD01F2E23DD4FF0000BCDF810B02E
:1023A000CDF820B0CDF818B022234FF000084FF040
:1023B0000009CAF8003089E73D5900088059000833
:1023C00035590008C45A00080000F07FD85D0008A5
:1023D000B85C0008905C00080000A07CFFFFEF7F65
:1023E00016F0100318BF6A23B14F059340464946C3
:1023F0000023F20704D5D7E90023FEF70DF90123E6
:10240000761007F10807F4D10BB180468946059B89
:10241000C3B1C9F30A52C2F16B03002B494611DD67
:102420001F2B40F32481342BDEBFC2F14B024FF04F
:10243000FF3303FA02F24FF00008CCBF4FF05C7993
:1024400002EA01090022002340464946FEF74CFB00
:102450000028A1D1069B0093089923465A4650466E
:1024600002F0E4F8089000283FF421AF049B5D1BC4
:10247000079B002BB4BF2B4600230E93079B4FF006
:10248000000B23EAE3731493CDF810B0089B504679
:10249000596802F023F8069000283FF410AF089B1B
:1024A0001A69023203F10C0192000C3002F008F8B4
:1024B0001CAB01931BAB009342464B465046CDE903
:1024C0000C8902F0F1FB1A9000283FF4F8AE0121CC
:1024D000504602F043F90490034600283FF4EFAE63
:1024E0001B9D1C9A002DABBF0E9B149B149C0E9E33
:1024F000ACBFEE185C1B059BED1A15446D4B013DFE
:102500009D42C2F1360280F2C4805B1B1F2BA2EBFE
:1025100003024FF0010700F3B18007FA03F30F93B2
:102520000025B718059BBE4214441C443346A8BF7F
:102530003B46A342A8BF2346002BC2BFFF1AE41AA2
:10254000F61A0E9B002B17DD04991A46504602F02E
:10255000C3F9049000283FF4B2AE01461A9A5046DF
:1025600002F012F9099000283FF4A9AE1A995046DA
:1025700001F0F4FF099B1A93002F00F38E80079B54
:10258000002B08DD149A0699504602F0A5F9069032
:1025900000283FF494AE002C08DD069922465046F0
:1025A00002F0F4F9069000283FF489AE002E08DD11
:1025B00004993246504602F0E9F9049000283FF4AD
:1025C0007EAE069A1A99504602F06CFA83460028AD
:1025D0003FF475AE0024C3680499C4600B9302F005
:1025E00045FAA0426CDA0B9B53EA080340F0928054
:1025F000C9F31303002B40F08D8029F000431B0D1D
:102600001B05B3F1D66F40F28580DBF814301BB99F
:10261000DBF81030012B7DDD59460122504602F0D7
:10262000B5F90499834602F021FA002872DD059974
:10263000214A4B46002900F08D8002EA0901B1F1E0
:10264000D66F00F38780B1F15C7F7FF7ADAE1B4B97
:10265000404649460022FDF7DFFF0B46034308BF13
:1026600022238046894608BFCAF8003032E64FF080
:10267000FF3202FA03F303EA0808E3E6C5F17F45F7
:1026800005F57F0505F57B45E23507FA05F50F975A
:1026900047E7012300250F9343E71A993A4650462E
:1026A00002F074F91A9000287FF469AF07E600BFC2
:1026B0009859000802FCFFFF0000F07F000050392D
:1026C000CDF8249065D10B9AC9F313035AB39A4AF3
:1026D00093422BD1059B414603B3984B4A46134086
:1026E000B3F1D46F4FF0FF321BD81B0DC3F16B0356
:1026F00002FA03F3994219D1914B099A9A4202D1F5
:1027000001313FF4DCAD8D4B099A1A4002F5801976
:102710004FF00008059B002B99D1DBE54FF0FF330C
:10272000E8E71346E6E753EA080380D0E5B1099BE2
:102730001D42EFD00B9B059A40464946C3B1FFF7B7
:102740005DFB02460B46DDE90C01FDF7AFFD80465F
:102750008946DFE71340A3F580136FEA13596FEA48
:1027600009594FF0FF38D5E70F9B13EA080FE0E750
:10277000FFF744FB02460B46DDE90C01FDF794FD33
:102780000022002380468946FEF7AEF90028C1D01A
:102790000AE60499584602F0E3FA00224FF080431B
:1027A00006460F46FEF7B4F9002870D00B9B002BAD
:1027B00042D0644F0026634D099B23F000431B0D5C
:1027C0001B050F930F9A604B9A4240F0C580099BFE
:1027D000A3F154794046494602F0ECF902460B4613
:1027E00030463946FDF718FF42464B46FDF75EFD81
:1027F0000B465249554A1940914280465DD90D9A7F
:102800004F4B9A4203D10C9B01333FF458ADDFF894
:1028100030914FF0FF381A99504601F09FFE06990B
:10282000504601F09BFE0499504601F097FE594630
:10283000504601F093FE29E6B8F1000F19D1099B2B
:10284000C3F31303E3B93F4B002230463946FEF78A
:1028500055F9C8B93E4B002230463946FDF7DCFE3B
:1028600004460D4605F1004316941793DDE91667FB
:10287000A2E7B8F1010F03D1099B002B3FF494ADFF
:10288000344F0026002496E70B9C314DEAE7304B8D
:10289000002230463946FDF7BFFE0B9B04460D462D
:1028A00033B901F1004310901193DDE9106783E71C
:1028B00002460B46CDE91023F7E703F15479059B57
:1028C000002BA8D129F000430F9A1B0D1B059A423B
:1028D000A1D120462946FEF7E7F9FDF76FFE024633
:1028E0000B4620462946FDF7DFFC0B9AC9F313037C
:1028F00043EA0803134304460D4668D00AA3D3E90C
:102900000023FEF7FBF800287FF4E4AC08A3D3E92A
:10291000002320462946FEF70FF900283FF47BAF3D
:10292000D8E400BFAFF300809535A094FFFFDF3FF0
:1029300035E5AF350000E03FFFFF0F000000F07FFE
:10294000FFFFEF7F0000F03F0000E07FFFFF9F7C74
:102950000000E03F0000F0BF059B13B30F9BB3F1F5
:10296000D46F1ED826A3D3E9002320462946FEF7BC
:10297000CFF890B129462046FEF726F9012838BF46
:102980000120FDF7CFFD0B9B04460D46D3B901F1A5
:10299000004312901393DDE912670F9A07F1D66393
:1029A0009F1ADDE90C0102F005F902460B4630469C
:1029B0003946FDF731FEDDE90C23FDF777FC804653
:1029C00089467CE702460B46CDE91223E3E70EA3D6
:1029D000D3E90023FEF792F89FE700230A93159AA4
:1029E000199B1360FFF771BA652A3FF463AB452A60
:1029F0003FF460AB0123FFF795BB00BFAFF300804E
:102A00000000C0FFFFFFDF419535A094FFFFCF3FDF
:102A1000014BFFF715BA00BF68000020012B2DE91C
:102A2000F047804601D0242B06D9FEF7B3FA1623CF
:102A300003600020BDE8F087354F0D46284615F8A5
:102A4000014BE65D16F00806F8D12D2C2FD12C781D
:102A50000126851C002B57D0102B09D1302C07D113
:102A6000287800F0DF00582849D16C78102302350F
:102A700006F1004E0EF1FF3E0027BEFBF3F938468B
:102A800003FB19EAA4F1300CBCF1090F14D8644619
:102A9000A34222DD002F1DDB81451BD301D1A245BE
:102AA00018DB00FB0340012715F8014BEAE72B2C4C
:102AB00004BF2C78851CCDE7A4F1410CBCF1190FA3
:102AC00001D8373CE4E7A4F1610CBCF1190F04D83C
:102AD000573CDDE74FF0FF37E6E7002F07DA222308
:102AE000C8F800307046002AA4D0691E05E006B17F
:102AF0004042002A9ED0002FF7D111609AE730247F
:102B0000002BB5D10823B3E7302CA9D00A23AFE7B7
:102B1000C1590008FFF782BFF8B50E4614460546B6
:102B200018B183690BB901F043F8214B9C422BD1BA
:102B30006C68A369A360A3891A072FD523696BB3B7
:102B400023692068C01A6369F6B28342374604DC01
:102B50002146284600F098FF30BBA368013BA360E4
:102B600023685A1C22601E7063690130834204D0BE
:102B7000A389DB0706D50A2E04D12146284600F09A
:102B800083FF88B93846F8BD0A4B9C4201D1AC6836
:102B9000CFE7094B9C4208BFEC68CAE721462846AC
:102BA00000F00CF80028CBD04FF0FF37EAE700BF69
:102BB000745B0008945B0008545B0008324B70B5EE
:102BC0001D6806460C4625B1AB6913B9284600F0CE
:102BD000EFFF2E4B9C420FD16C68A389B4F90C20F7
:102BE00019072CD4DD0611D40923336042F04003C9
:102BF000A3814FF0FF303EE0254B9C4201D1AC68F1
:102C0000EBE7244B9C4208BFEC68E6E7580712D577
:102C1000616B41B104F14403994202D0304602F0A5
:102C200025F900236363A38923F02403A3810023F0
:102C3000636023692360A38943F00803A3812369A8
:102C40004BB9A38903F42073B3F5007F03D0214669
:102C5000304601F0DBFBA089B4F90C2010F0010331
:102C60000AD00023A36063695B42A361236943B96F
:102C700010F08000BAD170BD810758BF6369A360AE
:102C8000F4E70020F7E700BF00000020745B0008B5
:102C9000945B0008545B00082DE9F74F03690C6949
:102CA000A34207467DDB013C01F1140800F1140545
:102CB00005EB8403019358F8243055F824200133A0
:102CC0009A424FEA840B08EB8409B2FBF3F62ED349
:102CD0004FF0000E4046AC46F24650F8042B93B23B
:102CE00006FB03E34FEA134E120C9BB206FB02E213
:102CF000AAEB0303DCF800A04FEA124E92B213FADB
:102D00008AF3C2EB1A4202EB23429BB243EA02432C
:102D100081454CF8043B4FEA224ADED255F80B308D
:102D20002BB9019B043B9D421A462ED33C61384689
:102D300001F09CFE002824DB013628464FF0000CF1
:102D400058F8042BD0F800E093B2ACEB0303120C5C
:102D500013FA8EF3C2EB1E4202EB23429BB243EA0C
:102D60000243C14540F8043B4FEA224CE8D255F8F3
:102D7000242005EB840322B9043B9D421A460AD362
:102D80003C61304603B0BDE8F08F1268043B002A76
:102D9000CCD1013CC7E71268043B002AF0D1013CCA
:102DA000EBE70020EEE700002DE9F04F446A99B010
:102DB00016461F46CDE90467DDF89480054674B9D0
:102DC000102001F063FB0246686220B9A84BEA219B
:102DD000A84802F011FBC0E901440460C4606B6ABA
:102DE000196851B15A684A60012393408B602846A4
:102DF00001F0B4FB6B6A00221A603B1EB9BF23F0DE
:102E0000004305930023C8F80030DDF814909A4B76
:102E1000BCBF0122C8F8002033EA090319D1249A63
:102E200042F20F731360C9F31303334300F080853C
:102E3000269B53B9914B22E0914B03930833269A7A
:102E40001360039819B0BDE8F08F8C4B03930333E4
:102E5000F5E7DDE90434CDE90C34DDE90C010022AD
:102E60000023FDF741FE804658B1249A01231360E8
:102E7000269B002B00F0598582481860431E03935F
:102E8000DFE716AB019317AB00932846DDE90C236F
:102E900001F00AFFC9F30A548346002C7ED00D9B33
:102EA000CDF84C80C3F31303DDE90C0143F07F51EF
:102EB00041F44011A4F2FF34734B0022FDF7F4F902
:102EC00065A3D3E90023FDF7A7FB65A3D3E900239E
:102ED000FDF7ECF9064620460F46FDF733FB62A3EB
:102EE000D3E90023FDF798FB02460B4630463946EE
:102EF000FDF7DCF906460F46FDF73EFE002282464E
:102F0000002330463946FDF7F9FD48B15046FDF73C
:102F100019FB32463B46FDF7E7FD08B90AF1FF3AD7
:102F2000BAF1160F57D8594B03EBCA03D3E9002364
:102F3000DDE90C01FDF7E2FD00284ED00AF1FF3A71
:102F400000230F93169B1C1B631E099345BFC4F1FE
:102F500001030693002300234CBF09930693BAF1A3
:102F6000000F3CDB099BCDF838A0534409930023A4
:102F70000A93229B092B00F28D80052BC4BF043BD2
:102F80002293229BA3F10203CCBF00240124032B34
:102F900000F28C80DFE803F02D4F4D5BDDE9164336
:102FA0001C4404F23243202BC3BFC3F1400304F29C
:102FB000124009FA03F3C3F12003C6BF26FA00F05A
:102FC000184306FA03F0FDF7ADFA0123A1F1F871F9
:102FD000013C139370E70123B3E70F90B2E7069B20
:102FE000A3EB0A030693CAF100030A9300230E938E
:102FF000BFE700230B93239B002B5ADC4FF0010902
:10300000CDF820904B46CDF88C90686A0022426043
:10301000042202F114069E42416850D9284601F06C
:103020005DFA039000284ED1194B02464FF4D5713A
:10303000CEE60123DEE700230B93239B0AEB030973
:1030400009F10103012B0893B8BF0123DDE7012338
:10305000F2E700BFAFF3008061436F63A787D23F01
:10306000B3C8608B288AC63FFB799F501344D33F77
:10307000CE5A0008E55A00080000F07FCA5A00083E
:10308000C15A0008415900080000F83FB85C000828
:10309000405B00080124002322930B944FF0FF397A
:1030A0000022CDF8209012232392AEE701230B9348
:1030B000F4E7DDF88C90CDF820904B46A5E7013180
:1030C00041605200A5E76B6A039A1A60089B0E2BB9
:1030D00000F2A880002C00F0A580BAF1000F34DDCA
:1030E0009A4A0AF00F0302EBC303D3E900341AF43F
:1030F000807FCDE910344FEA2A1416D0944BDDE9D5
:103100000C01D3E90823FDF7B1FBCDE9040104F07C
:103110000F0403278E4E54B9DDE91023DDE90401C5
:10312000FDF7A4FBCDE9040129E00227F2E7E1075E
:1031300008D5DDE91001D6E90023FDF76DFACDE9E8
:103140001001013764100836E5E700F0A580CAF1E8
:1031500000047E4B7E4E04F00F0203EBC203D3E962
:103160000023DDE90C01FDF757FACDE90401241134
:1031700000230227002C40F08480002BD2D10F9B2B
:10318000002B00F08B80DDE90434CDE91034DDE95B
:103190001001704B0022FDF7B1FC00287ED0089B87
:1031A000002B7BD0B9F1000F38DDDDE910016A4B4F
:1031B0000022FDF731FACDE904010AF1FF380137A9
:1031C0004C463846FDF7BEF9DDE90423FDF724FA45
:1031D000624B0022FDF76AF8A1F15076CDE91001AB
:1031E0001196002C5DD1DDE904015D4B0022FDF755
:1031F0005BF802460B46CDE90423109A3346FDF7EF
:103200009BFC002840F09C82DDE90401109A06F145
:103210000043FDF773FC002840F09082DDE90C3498
:10322000CDE90434179B002BC0F25281BAF10E0F86
:1032300000F34E81454B03EBCA03D3E90034CDE9DB
:103240000634239B002B80F2DB80089B002B00F3CD
:10325000D78040F07282424B0022DDE90601FDF783
:10326000DBF9DDE90423FDF75DFC089C2646002818
:1032700040F04882039F312307F8013B0AF1010A1D
:1032800044E2E20705D5D6E90023FDF7C5F9013789
:103290000123641008366DE7022770E7089CD046CA
:1032A0008FE70399294B214412910B9903EBC40337
:1032B000DDE9106753E90223002955D02949002090
:1032C000FDF7D4FA3B463246FCF7EEFFCDE910019C
:1032D000039FDDE90401FDF74FFC0446FDF732F9D9
:1032E00002460B46DDE90401FCF7DEFF30340246FE
:1032F0000B46CDE9042307F8014BDDE91023FDF768
:10330000FDFB002874D1DDE9042312490020FCF7FD
:10331000CBFFDDE91023FDF7F1FB002840F0B7807B
:10332000129B9F423FF47AAFDDE910010A4B002265
:10333000FDF772F9084BCDE910010022DDE9040127
:10334000FDF76AF9CDE90401C3E700BFB85C0008E6
:10335000905C00080000F03F0000244000001C408A
:10336000000014400000E03F30463946FDF754F9B4
:10337000CDE91001129B039C1493DDE90401FDF7D4
:10338000FBFB1590FDF7DEF802460B46DDE9040174
:10339000FCF78AFF159B303304F8013B129B9C42DB
:1033A00006460F464FF0000224D1A44BDDE9100180
:1033B000FCF77CFF02460B4630463946FDF7BCFB66
:1033C000002863D1DDE910239C490020FCF76CFF45
:1033D00002460B4630463946FDF790FB00283FF485
:1033E0001DAF149F7B1E149317F8013C302BF8D0AF
:1033F000C2463BE0924BFDF70FF9CDE90401BCE773
:10340000DDE90489039FDDE9062340464946FDF7CF
:103410002DFAFDF7B1FB0446FDF794F8DDE906232C
:10342000FDF7FAF804F1300602460B4640464946DD
:10343000FCF73AFF07F8016B039EDDF820C0BE1BC6
:10344000B44502460B4636D1FCF730FFDDE90623D2
:1034500080468946FDF770FB58BBDDE906234046F0
:103460004946FDF741FB08B1E10722D428465946F9
:1034700001F074F800233B70249B0AF101001860EE
:10348000269B002B3FF4DDAC1F60DAE427463B4669
:103490001F4613F8012D392A07D1039A9A42F7D112
:1034A0000399302208F101080A701A7801321A7063
:1034B0009EE7D046EBE7624B0022FDF7ADF8002215
:1034C000002380468946FDF70FFB00289BD0CDE7FF
:1034D0000B9A002A00F0D080229A012A00F3B280D1
:1034E000139A002A00F0A68003F233430A9C069F39
:1034F000069A1A440692099A01211A44284609920A
:1035000001F02CF90646002F0CDD099B002B09DD8C
:10351000BB42069AA8BF3B46D21A0692099AFF1AE6
:10352000D31A09930A9BF3B10B9B002B00F0A880E0
:10353000002C10DD31462246284601F0CDF95A46CE
:1035400001460646284601F01FF95946804628469E
:1035500001F004F8C3460A9B1A1B04D059462846BA
:1035600001F0BAF983460121284601F0F7F80E9BD5
:10357000002B044640F386801A460146284601F097
:10358000ABF9229B012B04467FDD4FF00008236935
:1035900004EB8303186901F093F8C0F12000099B44
:1035A000184410F01F0000F09280C0F12003042B9B
:1035B00040F38A80C0F11C00069B03440693099BDC
:1035C000034407440993069B002B05DD59461A4620
:1035D000284601F0DBF98346099B002B05DD2146D7
:1035E0001A46284601F0D2F904460F9B002B70D0F2
:1035F0002146584601F03AFA00286ADA0023594673
:103600000A22284600F0CCFF0B9B0AF1FF3A8346C2
:10361000002B00F09481314600230A22284600F056
:10362000BFFFB9F1000F064600F39380229B022BE7
:1036300057DC8EE0169BC3F1360357E70000E03FEE
:1036400000002440089B5C1E0A9BA342BFBF0A9B4C
:103650000A94E21A0E9BB6BF9B181C1B0E93089B84
:10366000B8BF0024002BB9BF069B089A069F089B91
:10367000BCBF9F1A00233BE70A9C069F0B9E42E7B4
:103680000A9A6BE7229B012B19DC049BBBB9059BB3
:10369000C3F313039BB9059B23F000431B0D1B05CC
:1036A00083B1069B01330693099B013309934FF0C5
:1036B00001080E9B002B7FF46AAF01206FE74FF0EB
:1036C0000008F6E79846F4E73FF47DAF18461C3053
:1036D00072E7089B002B36DC229B022B33DDDDF8E2
:1036E0002090B9F1000F0DD121464B460522284606
:1036F00000F056FF01460446584601F0B7F900288D
:103700003FF7B8AD239B039F6FEA030A4FF0000811
:103710002146284600F022FF002E3FF4A7AEB8F164
:10372000000F05D0B04503D04146284600F016FFF3
:103730003146284600F012FF98E600242646E1E7CD
:10374000C246264696E50B9BDDF82090002B00F044
:10375000FD80002F05DD31463A46284601F016F976
:103760000646B8F1000F5CD07168284600F0B6FE3E
:10377000074628B9804B024640F2EA21FFF728BBF2
:1037800032690232920006F10C010C3000F098FE12
:1037900001223946284601F0F9F8039B01330893CA
:1037A000039B4B440A93049B03F00103B046099327
:1037B0000646089B2146013B58460493FFF76CFAE6
:1037C000034630330690414658460B9301F04EF9BC
:1037D000324681462146284601F064F9C2680B9BB7
:1037E000074602BB0146584601F040F90B9B0246D2
:1037F00039462846CDE90B3200F0B0FE229B0C9AE8
:10380000089F43EA0201099B0B430B9B0DD1392B07
:1038100029D0B9F1000F01DD069B3133049A1370F2
:1038200076E73046B9E70122E2E7B9F1000F06DB9F
:10383000229941EA0909099959EA010120D1002A8E
:10384000ECDD594601222846089301F09FF82146F5
:10385000834601F00BF90028089B02DCDED1DA0771
:10386000DCD5392BD8D1049A392313703B461F4637
:10387000013B17F8012C392A50D001321A7047E762
:10388000002A03DD392BEED00133C7E7089A0A99E5
:1038900002F8013C8A422AD0594600230A222846CF
:1038A00000F07EFEB04583464FF000034FF00A0261
:1038B0004146284607D100F073FE80460646089B25
:1038C0000133089375E700F06BFE31468046002314
:1038D0000A22284600F064FE0646F0E7B9F1000F20
:1038E000039ACCBF4F46012717444FF000085946B2
:1038F00001222846089301F049F82146834601F049
:10390000B5F80028B2DC02D1089BDB07AED43B46F9
:103910001F4613F8012D302AFAD0F9E6039A9A428D
:10392000A5D10AF1010A312379E7144BFFF7A7BAB1
:10393000269B002B7FF480AA114BFFF7A0BAB9F1A8
:10394000000F03DC229B022B3FF7CBAE039F2146E7
:103950005846FFF7A1F900F1300307F8013B039A3D
:10396000BA1A9145BADD594600230A22284600F0CA
:1039700017FE8346EBE700BF405B00084059000894
:10398000C15A00088A89F8B5054610070C4657D475
:103990004B68002B04DC0B6C002B01DC0020F8BD15
:1039A000E66A002EFAD0002312F480522F682B60B2
:1039B00032D0606DA3895A0705D56368C01A636B5E
:1039C0000BB1236CC01A00230246E66A216A28461E
:1039D000B047431CA38906D129681D292CD8294A40
:1039E000CA40D60728D500226260D9042269226025
:1039F00004D5421C01D12B6803B96065616B2F604F
:103A00000029CBD004F14403994202D0284601F0AA
:103A10002DFA00206063C2E7216A01232846B047DF
:103A2000411CC7D12B68002BC4D01D2B01D0162BF5
:103A300001D12F60B2E7A38943F04003A381AEE731
:103A40000F69002FAAD093070E6808BF4B690F605B
:103A500018BF0023F61B8B60002E9FDD216AD4F86F
:103A600028C033463A462846E047002806DCA389AA
:103A700043F04003A3814FF0FF3090E70744361A2C
:103A8000EAE700BF0100402038B50B6905460C4647
:103A900013B90025284638BD18B183690BB900F069
:103AA00087F8144B9C421BD16C68B4F90C30002B86
:103AB000EFD0626ED00704D4990502D4A06D00F057
:103AC0007EFC28462146FFF75DFF636EDA07054658
:103AD000E0D4A3899B05DDD4A06D00F071FCD9E78B
:103AE000054B9C4201D1AC68DFE7044B9C4208BF08
:103AF000EC68DAE7745B0008945B0008545B00082C
:103B0000002310B50446C0E90033C0E904338360E4
:103B100081814366C2818361194608225C30FDF7CA
:103B200063FA054B6362054BA362054BE362054BE9
:103B30002462236310BD00BF0D5300082F530008FB
:103B4000675300088B530008014900F0AFB800BF6D
:103B5000893A000870B568224D1E55430E4605F19E
:103B6000740101F0EDF9044640B10021C0E90016EE
:103B70000C30A06005F16802FDF736FA204670BDF2
:103B8000014800F01CBC00BFF5010020014800F016
:103B900017BC00BFF5010020014800F010BC00BFB9
:103BA000F6010020014800F00BBC00BFF601002028
:103BB00010B50446FFF7F0FFA3691BB1BDE8104044
:103BC000FFF7F0BFC4E912332365134B134A1B6898
:103BD000A262A34204BF0123A361204600F020F8A3
:103BE0006060204600F01CF8A060204600F018F845
:103BF0000022E06004216068FFF782FFA0680122D4
:103C00000921FFF77DFFE06802221221FFF778FF0C
:103C10000123A361D2E700BF2C590008493B0008EB
:103C2000F8B50746FFF7ACFF1E4B1E68B36913B922
:103C30003046FFF7BDFF4836D6E90134013B03D5D6
:103C400033680BB33668F7E7B4F90C50D5B9164BA7
:103C5000E36004F15800656600F0B0FBFFF796FFE3
:103C6000C4E90155C4E904552560A5610822294627
:103C700004F15C00FDF7B8F9C4E90D55C4E912552B
:103C80002046F8BD6834D9E704213846FFF762FFC3
:103C9000044630600028D5D1FFF778FF0C233B6045
:103CA000EEE700BF2C5900080100FFFF2DE9F843A3
:103CB0000646884600F148040027D4E90195B9F189
:103CC000010905D52468002CF7D13846BDE8F883F2
:103CD000AB89012B07D9B5F90E30013303D0294642
:103CE0003046C04707436835E9E70369B3EB611F16
:103CF0002DE9F0434FEA611200F1140445DD11F0A3
:103D00001F0104EB830604EB82050CD100F11007C0
:103D10002946B14234D39B1A9B00EA1E964238BF13
:103D20000023234415E054F82270C1F12008CF404D
:103D300005F1040EA1467645F44615D89A1A92006C
:103D4000043A0135AE4238BF0022A318A75007B18C
:103D500004331A1BA3424FEAA20208BF00230261E8
:103D600008BF4361BDE8F083DCF800C00CFA08FC32
:103D70004CEA070749F8047B5EF8047BCF40DAE79A
:103D800051F804CB47F804CFC3E72346E1E7A0F19D
:103D90003003092B02D82038C0B27047A0F161036C
:103DA000052B01D84738F7E7A0F14103052B01D8CF
:103DB0002738F1E7002070472DE9F04F8BB08B4694
:103DC0000593B24B02901B68039318469046FCF78C
:103DD0000FFA039BDBF800200344824613F8013CF2
:103DE0000693931CC2F1FF2202F57F02FE32D11826
:103DF0001F4613F8010B01913028F8D0FFF7C7FFD9
:103E0000044600283AD103995246384601F0C1FAD7
:103E10000546002866D117F80A0007EB0A06FFF7E7
:103E2000B6FF002860D03346187830281F4603F1CB
:103E30000103F9D0FFF7ABFF0123B0FA80F4640966
:103E4000354601933A46164601323078FFF79FFF18
:103E50000028F8D103995246304601F09AFA80B909
:103E60004DB906EB0A052A46164601323078FFF7AF
:103E70008EFF0028F8D1AD1BAD0004E000242546DC
:103E8000E0E7002DF7D1337803F0DF03502B39D171
:103E900073782B2B2AD02D2B2CD0711C4FF00009BE
:103EA0000878FFF774FF431EDBB2182B2AD8A0F165
:103EB000100211F8010FFFF76AFF431EDBB2182B47
:103EC0001BD9B9F1000F00D052421544CBF80010B5
:103ED000D4B1019B002B14BF0027062738460BB036
:103EE000BDE8F08F3E4625460124CCE74FF000099F
:103EF000B11CD5E74FF00109FAE70A2303FB0202E0
:103F0000103AD6E73146E1E7F31B013B2146072B88
:103F10000ADC029800F0E2FA044640B95C4B024623
:103F2000DE215C4801F068FA01315B10EFE700F137
:103F300014094FF0000BCAF10103CDF81090CDF831
:103F400004B00893B7423FD3049F019B47F8043B5A
:103F5000A7EB0907BF102761184600F0B1FB7F01EE
:103F6000D8F800603F1AB74262DDBF1B39462046D1
:103F700000F047FF8246A8B17B1E591103F01F02D3
:103F800059F821104FF0010A0AFA02F20A4209D048
:103F9000534505DDB91E204600F033FF002844D10B
:103FA0004FF0020A39462046FFF79FFE3D44D8F8FD
:103FB0000830AB424ADA0298214600F0CFFA149A50
:103FC00000231360A32789E7731E069A079316F848
:103FD000013C934219D0BBF1200F07D1049B019AF9
:103FE00043F8042B0493002301939B4616F8010C1D
:103FF000FFF7CDFE019B00F00F0000FA0BF003432A
:1040000001930BF1040B079B0DE0089A731E1344F8
:10401000BB42E0D3184603990993524601F0B9F91F
:10402000099B0028D7D11E468CE74FF0030AB9E759
:1040300009DAF71B214602983A4600F0A7FCED1B6F
:10404000044600F114094FF0000AB0E7D8F8040064
:10405000A84271DD451BAE4235DCD8F80C30022B8E
:1040600029D0032B2BD0012B1CD1AE421AD1012E0B
:1040700012D1059AD8F80430136001232361C9F8DE
:104080000030149B62271C6028E700BF1C5C0008FE
:10409000405B0008B45B0008711E204600F0B1FED2
:1040A0000028E6D10298214600F058FA149A00231D
:1040B0001360502712E7159B002BF3D1D9E7159B0E
:1040C000002BD6D1EEE76F1EBAF1000F31D127B128
:1040D0003946204600F095FE82467B11012159F8B1
:1040E000233007F01F0701FA07F71F422946204631
:1040F00018BF4AF0020A761BFFF7F7FDD8F8045004
:104100000227BAF1000F48D0D8F80C30022B15D096
:10411000032B17D0012B09D11AF0020F06D0D9F8C2
:1041200000004AEA000A1AF0010F0ED147F010070A
:1041300033E04FF0010AD0E70127E2E7159BC3F116
:1041400001031593159B002BF0D0D4F810B004F1A7
:1041500014034FEA8B0A03EB8B014FF0000C184657
:1041600053F8042BB2F1FF3F1CD001320260022F42
:1041700004F114033DD1D8F80020013AB2420AD12B
:104180007111012253F8213006F01F0602FA06F6DB
:104190001E4218BF174647F02007149B1C60059B62
:1041A0001D609BE6994243F804CCD8D8A3689B4590
:1041B00017DB61680298013100F090F9814618B967
:1041C0001A4B02468421ACE62269023204F10C014A
:1041D00092000C3000F074F92146029800F0BEF90C
:1041E0004C4623695A1C04EB8303226101225A6165
:1041F000BDE722695A450BDD01212046FFF775FD19
:10420000D8F808300135AB42FFF6D5AE0127C2E73A
:1042100016F01F06FAD05344C6F1200653F8040CDA
:1042200000F04EFAB042E7DBF0E700BF405B000869
:10423000C2F10802920070B5C2F12006436804681A
:1042400003FA06F52C43D340046040F8043F88424B
:10425000F4D370BD30B50368013311F8014B14B9C4
:104260000360012030BD13F8012BA2F14105192D87
:1042700098BF2032A242F0D00020F3E72DE9F04FA2
:104280000B685E1102EB860613F01F0387B018BFA0
:1042900004360025371F904602680193824646F88F
:1042A000045CB9463C460295AB465178531C0393D7
:1042B00041B3084605920491FFF769FD00284FD1EC
:1042C0000499059A202918D8029B9B4513DD4C457B
:1042D00006D2072D04DC2A4649462046FFF7A8FFF0
:1042E000444550D90023A4F1040944F8043CCDF816
:1042F00008B04C461D46039AD7E7292956D1023209
:10430000CAF80020BBF1000F50D04C4506D2072D53
:1043100004DC2A4649462046FFF78AFF444534D943
:10432000A8F10402234653F8041B42F8041F9F42DD
:10433000F9D23B1B23F0030304330134033EB442A0
:1043400088BF04234344002243F8042B9F42FBD23E
:104350003B681BB9474527D101233B60052026E078
:104360000135082D0BF1010B06DD4445C3D90023AF
:1043700044F8043C0125043C226800F00F0040EAA8
:1043800002122260B7E70825B5E7019B002BDFD0BA
:104390004FF0FF32C3F1200322FA03F356F8042C46
:1043A0001A4046F8042CD3E7043FD1E7042007B0B5
:1043B000BDE8F08F004870475801002070477047F3
:1043C000704770B50E46B1F90E10002996B014462C
:1043D0001D4608DAB6F90C3000222A601A0610D4FD
:1043E0004FF480630EE06A4601F046F80028F1DBE6
:1043F000019A02F47042A2F500535A425A412A60CF
:10440000EEE740230020236016B070BD8B8973B5A2
:104410009D0706460C4607D504F147032360236138
:104420000123636102B070BD01AB6A46FFF7C9FFAB
:1044300000990546304600F083FD48B9B4F90C30C8
:104440009A05EFD423F0030343F00203A381E3E7CB
:104450000D4BB362A389206043F08003A381009BCE
:104460006361019B20615BB1B4F90E10304601F02D
:1044700015F828B1A38923F0030343F00103A381B6
:10448000A0890543A581CDE7493B0008024B0146C1
:10449000186800F055BD00BF0000002082B001B9CF
:1044A00001A942B14BB113780B601278101E18BFEE
:1044B000012002B070471046FBE76FF00100F8E7FB
:1044C0000A44914200F1FF3300D1704710B511F852
:1044D000014B03F8014F9142F9D110BD70B5466A06
:1044E00004460D4676B91020FFF7D0FF0246606201
:1044F00020B9184B1848662100F07EFFC0E901661C
:104500000660C660666AF36883B1636ADB6853F865
:104510002500B8B9012101FA05F6721D9200204666
:1045200000F090FC60B1C0E901560EE021220421A8
:10453000204600F087FC636AF060DB68002BE4D162
:10454000002070BD026843F825200023C0E9033332
:10455000F7E700BFCE5A0008305C000870B5466A25
:1045600005460C4676B91020FFF790FF02466862B8
:1045700020B9094B09488A2100F03EFFC0E90166D5
:104580000660C6603CB16B6A6268DB6853F8221053
:10459000216043F8224070BDCE5A0008305C00080C
:1045A0002DE9F0410D6907460C461E4601F1140C39
:1045B0000020DCF8003099B202FB01611E0C0B0CEC
:1045C00002FB063389B2013001EB034185424CF80E
:1045D000041B4FEA1346ECDC0EB3A368AB4219DCB4
:1045E000616838460131FFF779FF804628B90246F5
:1045F0000C4B0D48B52100F0FFFE2269023204F198
:104600000C0192000C30FFF75BFF21463846FFF7A4
:10461000A5FF444604EB850301355E612561204614
:10462000BDE8F081405B0008305C00082DE9F843EC
:104630000C4615461F4609220833064693FBF2F343
:10464000002101229A4209DB3046FFF747FF40B9BB
:104650000246194B1948CE2100F0CEFE520001311E
:10466000F0E7089B4361092D4FF00103036116DD5C
:1046700004F10909C8462C4418F8013B0146303BB7
:104680000A223046FFF78CFFA045F5D1A5F10804BA
:104690004C442D1B6319BB4204DBBDE8F8830A348C
:1046A0000925F6E714F8013B0146303B0A22304663
:1046B000FFF776FFEEE700BF405B0008305C0008C4
:1046C000020C12040346CAB90304102013F07F4FF2
:1046D00004BF1B02083013F0704F04BF1B010430ED
:1046E00013F0404F04BF9B000230002B05DB13F09A
:1046F000804F00F1010008BF202070470020E5E74F
:104700000368024613F007000BD0D90721D498079D
:1047100049BF5B089B08012013605CBF1360022047
:10472000704799B209B91B0C1020D9B209B90830E9
:104730001B0A190704BF1B090430990704BF9B0813
:104740000230D90703D45B0800F1010003D01360E5
:1047500070470020704720207047000010B50C46BD
:104760000121FFF7BBFE024628B9054B05484FF46F
:10477000A07100F041FE01234461036110BD00BF40
:10478000405B0008305C00082DE9F04F91460A6953
:10479000D9F810309A42B8BF0B460C46BCBF4C4605
:1047A00099462769D9F810A0A368616807EB0A0643
:1047B000B34285B0B8BF0131FFF790FE30B9024671
:1047C000434B444840F25D1100F016FE00F1140521
:1047D00005EB86082B460022434521D304F1140340
:1047E00003EB870709F1140303EB8A0202923A1BD9
:1047F000153A22F00302043204F115018F4238BF4A
:1048000004220192029A03939A420CD8002E03DDEF
:1048100058F8043D002B59D0066105B0BDE8F08F73
:1048200043F8042BD8E7B3F800A0BAF1000F23D067
:1048300004F1140EA9464FF0000C5EF8042BD9F8D1
:1048400000101FFA82FB89B20AFB0B116144D9F8F0
:1048500000C0120C4FEA1C4C0AFB02C202EB1142D0
:1048600089B241EA0241774549F8041B4FEA124CEC
:10487000E3D8019A45F802C0039AB2F802900433D3
:10488000B9F1000F20D0296804F1140CAE464FF0A6
:10489000000ABCF800B0BEF8022009FB0B229244CB
:1048A00089B241EA0A414EF8041B5CF8042BBEF8B9
:1048B0000010120C09FB021101EB1A4167454FEA87
:1048C000114AE6D8019AA95004359BE7013E9DE7BD
:1048D000405B0008305C00082DE9F843154612F0F3
:1048E000030206460F4607D0254C013A002354F830
:1048F0002220FFF755FE0746AD103DD0746A7CB903
:104900001020FFF7C3FD0246706228B91D4B1E48F8
:104910004FF4D77100F070FDC0E901440460C46039
:10492000D6F82480D8F808404CB940F271213046BE
:10493000FFF714FF0023C8F80800044603604FF097
:104940000009EB070AD5394622463046FFF71CFF1F
:10495000394680463046FFF701FE47466D100BD0C2
:10496000206838B9224621463046FFF70DFF206007
:10497000C0F800900446E4E73846BDE8F88300BF7D
:10498000805D0008CE5A0008305C00082DE9F04731
:104990000C464968236903EB6218A36807469146F1
:1049A0004FEA621A08F10106B3420BDB3846FFF703
:1049B00095FD054648B902462A4B2B4840F2D911CD
:1049C00000F01AFD01315B00EEE7002300F1140155
:1049D00000F110021846534537DB20692AEAEA7ACB
:1049E00004F1140319F01F0901EB8A0103EB8000A5
:1049F0002FD0C9F1200E8A464FF0000C1A6802FA37
:104A000009F242EA0C024AF8042B53F8042B9842AC
:104A100022FA0EFCF2D8031B153B23F003030433E8
:104A200004F11502904238BF042341F803C0BCF1E1
:104A3000000F01D008F10206013E38462E612146E2
:104A4000FFF78CFD2846BDE8F08742F8040F0133DC
:104A5000C1E7043953F8042B41F8042F9842F9D8E0
:104A6000EAE700BF405B0008305C00080A690346C3
:104A70000069801A30B50DD11433143103EB820470
:104A800001EB820154F8045D51F8042D954202D0E7
:104A900004D3012030BDA342F4D3FBE74FF0FF3035
:104AA000F8E700002DE9F84F0D4607461146284665
:104AB0001446FFF7DBFF061E11D131463846FFF7DB
:104AC0000DFD024628B9394B40F23221384800F03A
:104AD00093FC0123C0E904361046BDE8F88FA4BF5B
:104AE00023462C4638466168A6BF1D46002601268F
:104AF000FFF7F4FC024618B92C4B4FF41071E5E7B0
:104B00002769C6602E6904F1140005F1140902F149
:104B1000140E00EB870C09EB86061034F2460021D8
:104B200059F8043B54F804BF1FFA83F811FA8BF1CB
:104B30001B0CA1EB0808C3EB1B4303EB28431FFA34
:104B400088F819144E4548EA03434AF8043BE7D86D
:104B5000731B153B23F0030304331535AE4238BFF6
:104B60000423184473449E46064666450ED30CF152
:104B70000301091A21F003010338844538BF0021DD
:104B8000194451F8043D7BB11761A5E756F8048B31
:104B900011FA88F4251405EB1845A4B244EA05443B
:104BA0004EF8044B2914E0E7013FEAE7405B0008B8
:104BB000305C0008114B0B40A3F15073002B02DD59
:104BC0000020194670475B42B3F1A07F4FEA2352A1
:104BD0004FF000004FF0000104DA4FF4002343FAD5
:104BE00002F17047A2F114031E2BDABF4FF000420E
:104BF00022FA03F301231846704700BF0000F07F3C
:104C00002DE9F843076900F1140909EB8707A7F1BB
:104C1000040857F8046C3046FFF752FDC0F120033A
:104C20000A280B601F4917DCC0F10B0CC14526FA9E
:104C30000CF338BF57F8082C43EA010528BF0022BF
:104C400000F1150306FA03F322FA0CF243EA020418
:104C500020462946BDE8F883C1453ABF57F8082CDD
:104C6000A7F108080022B0F10B0316D0C3F120070A
:104C700022FA07F1C84506FA03F646EA01068CBF98
:104C800058F8041C002146F07F5502FA03F0F94061
:104C900045F4401540EA0104DAE746EA0105144606
:104CA000D6E700BF0000F03F2DE9F3410121DDE927
:104CB000087690461D46FFF711FC044630B90246BF
:104CC000254B264840F20A3100F096FBC5F313034A
:104CD000C5F30A552DBB0193B8F1000326D06846F1
:104CE0000093FFF70DFD0099F0B1019AC0F1200388
:104CF00002FA03F30B43C24063610192019BA3617B
:104D0000002B14BF022101212161C5B1A5F2334559
:104D10000544C0F135003D603060204602B0BDE87A
:104D2000F08143F48013D6E76161E7E701A8FFF75C
:104D3000E7FC019B6361012121612030E5E704EB81
:104D40008103A0F2324038601869FFF7B9FCC0EB6C
:104D500041113160E1E700BF405B0008305C0008B2
:104D60002DE9F74F884669468146FFF749FF0F4610
:104D700004460D46404601A9FFF742FFD9F810301E
:104D8000D8F81020A3EB020CDDE900329B1A03EBEC
:104D90004C13002BD5BF0A462A46C3EB033302EB64
:104DA00003578B46D8BF02EB035B5B46024639468E
:104DB0002046FBF75BFD03B0BDE8F08F013970B50D
:104DC00049111469013102F1140300EB810103EB75
:104DD0008404051FA3420CD3A31A113B23F0030341
:104DE0001132A24288BF002318440023884205D311
:104DF00070BD53F8046B45F8046FEBE740F8043BD3
:104E0000F4E700F1140200694B11984210B511DB70
:104E10000ADD11F01F0107D052F8234024FA01F0F7
:104E200000FA01F18C420BD102EB8303934203D8C9
:104E3000002010BD0346F7E753F8041D0029F5D004
:104E40000120F6E770B5A1FB025434B9294600F001
:104E500077F8064628B9304670BD0C22026000265D
:104E6000F9E72A462146FCF7BFF8F4E738B50546CE
:104E7000002941D051F8043C0C1F002BB8BFE418A6
:104E800000F048FB1D4A136833B96360146028467C
:104E9000BDE8384000F044BBA34208D9206821187F
:104EA0008B4201BF19685B6809182160EDE71A465B
:104EB0005B680BB1A342FAD911685018A0420BD11C
:104EC00020680144501883421160E0D118685B6883
:104ED000536001441160DAE702D90C232B60D6E756
:104EE000206821188B4204BF19685B68636004BFA7
:104EF000091821605460CAE738BD00BFF8010020DE
:104F000070B50E4E0C463168054611B900F0EEF949
:104F100030602146284600F0E9F9431C0AD0C41C41
:104F200024F00304A04207D0211A284600F0DEF93D
:104F3000013001D14FF0FF34204670BDFC0100204C
:104F40002DE9F041CD1C25F0030508350C2D38BFA7
:104F50000C25002D074601DBA94205D90C233B6037
:104F600000263046BDE8F0812E4E00F0D3FA3368BB
:104F70001C4634BB29463846FFF7C2FF431C044693
:104F80004DD134682646002E40D12368314638463C
:104F900004EB030800F0AAF980453AD121680335F3
:104FA0006D1A25F0030508350C2D38BF0C25294650
:104FB0003846FFF7A5FF01302BD023682B44236030
:104FC0000EE02268521B1ED40B2A16D96119A34287
:104FD000256018BF5960636808BF316062514B603B
:104FE000384604F10B0600F09BFA26F00706231D55
:104FF000F21AB6D09B1BA350B3E76268A3420CBF62
:1050000032605A60ECE723466468B2E7344676685B
:10501000B9E70C233B60384600F082FAA1E725602F
:10502000DEE700BFF80100202DE9F0478E689E42C0
:1050300082460C4690461F4638D88A8912F4906FF3
:1050400032D025680969A5EB0109656905EB4505BD
:1050500005EBD57501334B446D109D4238BF1D469D
:10506000530531D52946FFF76BFF064650B90C238F
:10507000CAF80030A38943F04003A3814FF0FF300A
:10508000BDE8F08721694A46FFF71AFAA38923F49D
:10509000906343F08003A381266165614E44A5EBD4
:1050A00009052660A5603E46BE4200D93E462068FE
:1050B0003246414600F014FAA3689B1BA3602368A4
:1050C000334423600020DBE72A4600F02FFA06462F
:1050D0000028E1D121695046FFF7C8FEC7E700006C
:1050E0002DE9F04F98468B891B069DB007460D466B
:1050F00014460ED50B6963B94021FFF721FF2860E4
:10510000286120B90C233B604FF0FF30D1E04023F1
:105110006B610023099320238DF82930CDF80C8092
:105120003023DFF8A8818DF82A304FF0010923469B
:105130009A4613F8012B0AB1252AF9D1BAEB040BD0
:105140000BD05B46224629463846FFF76DFF0130FB
:1051500000F0AA80099A5A4409929AF80030002B6C
:1051600000F0A28000234FF0FF32CDE905230AF1C1
:10517000010A049307938DF853301A93544605227D
:1051800014F8011B5148FBF73BF8049AD8B9D00634
:1051900044BF20238DF85330110744BF2B238DF8D3
:1051A00053309AF800302A2B15D0079A5446002025
:1051B0004FF00A0C214611F8013B303B092B4ED928
:1051C000B0B1079214E0A0EB080309FA03F313430C
:1051D0000493A246D2E7039B191D1B680391002B81
:1051E000BBBF5B4242F0020207930793B8BF049231
:1051F00023782E2B0CD163782A2B35D1039B1A1DD3
:105200001B680392002BB8BF4FF0FF3302340593A5
:10521000DFF8BCA0217803225046FAF7F1FF40B135
:105220004023A0EB0A0003FA00F0049B034301347F
:10523000049314F8011B27488DF828100622FAF76A
:10524000DFFF002838D0244B1BBB039B073323F020
:10525000070308330393099B3344099367E70CFB67
:1052600002320C460120A5E70023013405931946BC
:105270004FF00A0C204610F8012B303A092A03D9C6
:10528000002BC5D00591C3E70CFB01210446012387
:10529000F0E703AB00932A46104B04A93846FBF70E
:1052A00049FF421C0646D6D1AB895B063FF52CAFC1
:1052B00009981DB0BDE8F08F03AB00932A46074B59
:1052C00004A93846FCF7CEF9EBE700BF8C5D000877
:1052D000925D0008965D000835110008295000080D
:1052E00001490020704700BF0000F87F38B5064D27
:1052F0000023044608462B60FBF7ECFD431C02D15B
:105300002B6803B1236038BD0002002010B50C46A5
:10531000B1F90E1000F090FA0028ABBF636DA389BD
:105320001B1823F48053ACBF6365A38110BD2DE926
:10533000F0411F468B89DB0505460C46164605D510
:10534000B1F90E100223002200F0B8F8A389B4F9D5
:105350000E1023F48053A38132463B462846BDE815
:10536000F04100F037B810B50C46B1F90E1000F05E
:10537000A5F8431CA38915BF606523F4805343F44B
:105380008053A38118BFA38110BDB1F90E1000F0A6
:1053900051B810B5034672B10139841813F8010BE6
:1053A00011F8012F904201D1A34201D1801A10BD02
:1053B0000028F3D1FAE71046F9E70346084641B161
:1053C000FF2A04D98A221A604FF0FF3070470A7012
:1053D0000120704738B5074D0446084611460022A3
:1053E0002A601A46FBF72AFD431C02D12B6803B141
:1053F000236038BD000200201FB514461A46094B31
:105400001B680546D8684CB1074B0091CDE90134C3
:1054100006492B4600F01EF800F020FA044B1C460B
:10542000F3E700BF000000209D5D0008AA5D0008B2
:10543000D85D000838B5064D0023044608462B60A9
:10544000FBF718FD431C02D12B6803B1236038BD64
:10545000000200200EB403B5014603AB054853F823
:10546000042B0068019300F0B7F802B05DF804EB7C
:1054700003B070470000002038B5074D00230446F4
:10548000084611462B60FBF700FD431C02D12B6838
:1054900003B1236038BD00BF0002002038B5064DBF
:1054A0000023044608462B60FBF7FEFC431C02D198
:1054B0002B6803B1236038BD0002002038B5074DCA
:1054C00004460846114600222A601A46FBF7F6FCFD
:1054D000431C02D12B6803B1236038BD00020020B9
:1054E000884210B501EB020402D98442234607D852
:1054F000431EA14208D011F8012B03F8012FF8E751
:10550000024401468A4200D110BD13F8014D02F851
:10551000014DF7E70148FEF752BF00BFF40100203C
:105520000148FEF74DBF00BFF40100202DE9F04116
:10553000804614460E4621B9BDE8F0411146FFF7FA
:10554000FFBC2AB9FFF792FC25462846BDE8F0814A
:1055500000F08BF98442074602D8B4EB500F12D802
:1055600021464046FFF7ECFC05460028EDD0BC4242
:105570002246314628BF3A46FEF7A2FF3146404652
:10558000FFF774FCE1E73546DFE79368013B002B4A
:1055900010B4936007DA9469A34201DB0A2902D1AF
:1055A00010BCFDF7B9BA1368581C10601970084692
:1055B00010BC7047F8B506460F461446D518AC42E5
:1055C00001D1002007E014F8011B3A463046FFF7EE
:1055D000DCFF431CF3D1F8BD2DE9F04F0D469DB023
:1055E00014469846064618B183690BB9FEF7E0FAEF
:1055F000894B9D421BD175686B6ED90705D4AB8969
:105600009A0502D4A86DFEF7DAFEAB891B0701D517
:105610002B69EBB929463046FDF7D0FAC0B16B6E65
:10562000DC070ED54FF0FF301DB0BDE8F08F7B4B8F
:105630009D4201D1B568DFE7794B9D4208BFF5680F
:10564000DAE7AB899805EDD4A86DFEF7B9FEE9E776
:105650000023099320238DF82930CDF80C803023C6
:10566000DFF8C0818DF82A304FF0010923469A46B1
:1056700013F8012B0AB1252AF9D1BAEB040B0BD090
:105680005B46224629463046FFF794FF013000F082
:10569000AA80099A5A4409929AF80030002B00F027
:1056A000A28000234FF0FF32CDE905230AF1010A61
:1056B000049307938DF853301A935446052214F837
:1056C000011B5848FAF79CFD049AD8B9D10644BF8B
:1056D00020238DF85330130744BF2B238DF853300C
:1056E0009AF800302A2B15D0079A544600204FF024
:1056F0000A0C214611F8013B303B092B4ED9B0B1C1
:10570000079214E0A0EB080309FA03F31343049390
:10571000A246D2E7039B191D1B680391002BBBBF58
:105720005B4242F0020207930793B8BF04922378CA
:105730002E2B0CD163782A2B35D1039B1A1D1B68A5
:105740000392002BB8BF4FF0FF3302340593DFF80C
:10575000D8A0217803225046FAF752FD40B14023E9
:10576000A0EB0A0003FA00F0049B03430134049306
:1057700014F8011B2D488DF828100622FAF740FD79
:1057800000283FD02A4B1BBB039B073323F00703A2
:1057900008330393099B3B44099367E70CFB0232F0
:1057A0000C460120A5E700230134059319464FF06C
:1057B0000A0C204610F8012B303A092A03D9002B95
:1057C000C5D00591C3E70CFB012104460123F0E796
:1057D00003AB00932A46174B04A93046FBF7AAFCFB
:1057E0000746781CD6D16B6ED90705D4AB899A05CC
:1057F00002D4A86DFEF7E4FDAB895B063FF512AF5E
:10580000099811E703AB00932A460A4B04A93046D6
:10581000FBF728FFE4E700BF745B0008945B000817
:10582000545B00088C5D0008925D0008965D0008DE
:1058300035110008B555000838B5074D044608462F
:10584000114600222A601A46FBF7DBFA431C02D1FC
:105850002B6803B1236038BD0002002008B5062084
:1058600000F034F80120FBF7C2FA51F8043C181F8D
:10587000002BBCBF0B58C01870471F2938B5044611
:105880000D4604D9162303604FF0FF3038BD426C3B
:1058900012B152F821304BB9204600F031F82A46B7
:1058A00001462046BDE8384000F018B8012B0AD068
:1058B000591C03D1162303600120E7E7002442F8B6
:1058C0002540284698470020E0E70000024B0146AB
:1058D0001868FFF7D2BF00BF0000002038B5074DA1
:1058E00000230446084611462B60FBF770FA431C60
:1058F00002D12B6803B1236038BD00BF0002002035
:10590000FBF75EBAF8B500BFF8BC08BC9E4670470E
:0C591000F8B500BFF8BC08BC9E4670470C
:1059200048656C6C6F20526F6E616B000400002044
:10593000494E4600696E66004E414E006E616E0033
:105940003000303132333435363738394142434410
:105950004546003031323334353637383961626389
:105960006465660065256C64000000003500000079
:10597000CEFBFFFFCB030000010000000000000091
:1059800034000000CEFBFFFFCB030000010000004D
:105990000000000000000000BC89D897B2D29C3CF7
:1059A00033A7A8D523F649393DA7F444FD0FA53206
:1059B0009D978CCF08BA5B25436FAC6428066811AD
:1059C00000202020202020202020282828282820CF
:1059D00020202020202020202020202020202020C7
:1059E000208810101010101010101010101010102F
:1059F000100404040404040404040410101010101F
:105A000010104141414141410101010101010101E8
:105A1000010101010101010101010101101010103A
:105A200010104242424242420202020202020202BA
:105A3000020202020202020202020202101010100E
:105A40002000000000000000000000000000000036
:105A50000000000000000000000000000000000046
:105A60000000000000000000000000000000000036
:105A70000000000000000000000000000000000026
:105A80000000000000000000000000000000000016
:105A90000000000000000000000000000000000006
:105AA00000000000000000000000000000000000F6
:105AB00000000000000000000000000000000000E6
:105AC00000496E66696E697479004E614E005245F8
:105AD000454E54206D616C6C6F6320737563636514
